{
  "contractName": "DogAncestry",
  "abi": [
    {
      "inputs": [],
      "payable": false,
      "stateMutability": "nonpayable",
      "type": "constructor"
    },
    {
      "anonymous": false,
      "inputs": [
        {
          "indexed": false,
          "internalType": "uint256",
          "name": "dogId",
          "type": "uint256"
        }
      ],
      "name": "DogRegistered",
      "type": "event"
    },
    {
      "anonymous": false,
      "inputs": [
        {
          "indexed": false,
          "internalType": "uint256",
          "name": "dogId",
          "type": "uint256"
        },
        {
          "indexed": false,
          "internalType": "uint256",
          "name": "recordNum",
          "type": "uint256"
        }
      ],
      "name": "NewRecord",
      "type": "event"
    },
    {
      "constant": true,
      "inputs": [
        {
          "internalType": "uint256",
          "name": "",
          "type": "uint256"
        }
      ],
      "name": "dogs",
      "outputs": [
        {
          "internalType": "address",
          "name": "registerer",
          "type": "address"
        },
        {
          "internalType": "uint256",
          "name": "microchipNumber",
          "type": "uint256"
        },
        {
          "internalType": "string",
          "name": "name",
          "type": "string"
        },
        {
          "internalType": "string",
          "name": "breed",
          "type": "string"
        },
        {
          "internalType": "uint256",
          "name": "dob",
          "type": "uint256"
        },
        {
          "internalType": "uint256",
          "name": "dam",
          "type": "uint256"
        },
        {
          "internalType": "uint256",
          "name": "sire",
          "type": "uint256"
        }
      ],
      "payable": false,
      "stateMutability": "view",
      "type": "function"
    },
    {
      "constant": false,
      "inputs": [
        {
          "internalType": "uint256",
          "name": "microchipNumber",
          "type": "uint256"
        },
        {
          "internalType": "string",
          "name": "name",
          "type": "string"
        },
        {
          "internalType": "string",
          "name": "breed",
          "type": "string"
        },
        {
          "internalType": "uint256",
          "name": "dob",
          "type": "uint256"
        },
        {
          "internalType": "uint256",
          "name": "dam",
          "type": "uint256"
        },
        {
          "internalType": "uint256",
          "name": "sire",
          "type": "uint256"
        }
      ],
      "name": "registerDog",
      "outputs": [],
      "payable": false,
      "stateMutability": "nonpayable",
      "type": "function"
    },
    {
      "constant": false,
      "inputs": [
        {
          "internalType": "uint256",
          "name": "microchipNumber",
          "type": "uint256"
        },
        {
          "internalType": "uint256",
          "name": "date",
          "type": "uint256"
        },
        {
          "internalType": "string",
          "name": "title",
          "type": "string"
        },
        {
          "internalType": "string",
          "name": "details",
          "type": "string"
        }
      ],
      "name": "createRecord",
      "outputs": [],
      "payable": false,
      "stateMutability": "nonpayable",
      "type": "function"
    },
    {
      "constant": true,
      "inputs": [
        {
          "internalType": "uint256",
          "name": "microchipNumber",
          "type": "uint256"
        }
      ],
      "name": "getDog",
      "outputs": [
        {
          "components": [
            {
              "internalType": "address",
              "name": "registerer",
              "type": "address"
            },
            {
              "internalType": "uint256",
              "name": "microchipNumber",
              "type": "uint256"
            },
            {
              "internalType": "string",
              "name": "name",
              "type": "string"
            },
            {
              "internalType": "string",
              "name": "breed",
              "type": "string"
            },
            {
              "internalType": "uint256",
              "name": "dob",
              "type": "uint256"
            },
            {
              "internalType": "uint256",
              "name": "dam",
              "type": "uint256"
            },
            {
              "internalType": "uint256",
              "name": "sire",
              "type": "uint256"
            },
            {
              "internalType": "uint256[]",
              "name": "offspring",
              "type": "uint256[]"
            },
            {
              "components": [
                {
                  "internalType": "address",
                  "name": "recorder",
                  "type": "address"
                },
                {
                  "internalType": "uint256",
                  "name": "date",
                  "type": "uint256"
                },
                {
                  "internalType": "string",
                  "name": "title",
                  "type": "string"
                },
                {
                  "internalType": "string",
                  "name": "details",
                  "type": "string"
                }
              ],
              "internalType": "struct DogAncestry.Record[]",
              "name": "medicals",
              "type": "tuple[]"
            }
          ],
          "internalType": "struct DogAncestry.Dog",
          "name": "",
          "type": "tuple"
        }
      ],
      "payable": false,
      "stateMutability": "view",
      "type": "function"
    }
  ],
  "bytecode": "0x60806040523480156200001157600080fd5b506200009860646040518060400160405280600681526020017f4a616e6e657400000000000000000000000000000000000000000000000000008152506040518060400160405280600381526020017f506f6f000000000000000000000000000000000000000000000000000000000081525063075bcd15600080620003c560201b60201c565b6200011e60656040518060400160405280600581526020017f53746576650000000000000000000000000000000000000000000000000000008152506040518060400160405280600381526020017f446c65000000000000000000000000000000000000000000000000000000000081525063075bcd15600080620003c560201b60201c565b620001a460666040518060400160405280600781526020017f4c696e64736179000000000000000000000000000000000000000000000000008152506040518060400160405280600581526020017f4c6162726100000000000000000000000000000000000000000000000000000081525063075bcd15600080620003c560201b60201c565b6200022a60676040518060400160405280600381526020017f4a696d00000000000000000000000000000000000000000000000000000000008152506040518060400160405280600381526020017f446f72000000000000000000000000000000000000000000000000000000000081525063075bcd15600080620003c560201b60201c565b620002b160686040518060400160405280600881526020017f53746576657474650000000000000000000000000000000000000000000000008152506040518060400160405280600681526020017f506f6f646c65000000000000000000000000000000000000000000000000000081525063075bcd1560646065620003c560201b60201c565b6200033860696040518060400160405280600781526020017f4a696e64736179000000000000000000000000000000000000000000000000008152506040518060400160405280600881526020017f4c61627261646f7200000000000000000000000000000000000000000000000081525063075bcd1560666067620003c560201b60201c565b620003bf606a6040518060400160405280600881526020017f4a696e64657474650000000000000000000000000000000000000000000000008152506040518060400160405280600b81526020017f4c61627261646f6f646c6500000000000000000000000000000000000000000081525063075bcd1560686069620003c560201b60201c565b62000966565b60008614156200040c576040517f08c379a00000000000000000000000000000000000000000000000000000000081526004016200040390620008c8565b60405180910390fd5b6000806000888152602001908152602001600020600101541462000467576040517f08c379a00000000000000000000000000000000000000000000000000000000081526004016200045e90620008a6565b60405180910390fd5b600085511415620004af576040517f08c379a0000000000000000000000000000000000000000000000000000000008152600401620004a6906200090c565b60405180910390fd5b600084511415620004f7576040517f08c379a0000000000000000000000000000000000000000000000000000000008152600401620004ee90620008ea565b60405180910390fd5b3360008088815260200190815260200160002060000160006101000a81548173ffffffffffffffffffffffffffffffffffffffff021916908373ffffffffffffffffffffffffffffffffffffffff160217905550856000808881526020019081526020016000206001018190555084600080888152602001908152602001600020600201908051906020019062000590929190620006de565b50836000808881526020019081526020016000206003019080519060200190620005bc929190620006de565b508260008088815260200190815260200160002060040181905550816000808881526020019081526020016000206005018190555080600080888152602001908152602001600020600601819055506000821462000654576000808381526020019081526020016000206007018690806001815401808255809150509060018203906000526020600020016000909192909190915055505b600081146200069d576000808281526020019081526020016000206007018690806001815401808255809150509060018203906000526020600020016000909192909190915055505b7f7ceb44edee9af0b1ddf26d45c39285e1c454880d1c41931127f9c7627876ac2786604051620006ce91906200092e565b60405180910390a1505050505050565b828054600181600116156101000203166002900490600052602060002090601f016020900481019282601f106200072157805160ff191683800117855562000752565b8280016001018555821562000752579182015b828111156200075157825182559160200191906001019062000734565b5b50905062000761919062000765565b5090565b6200078a91905b80821115620007865760008160009055506001016200076c565b5090565b90565b60006200079c6016836200094b565b91507f446f6720616c72656164792072656769737465726564000000000000000000006000830152602082019050919050565b6000620007de6020836200094b565b91507f4d6963726f63686970204e756d6265722063616e6e6f74206265207a65726f2e6000830152602082019050919050565b6000620008206011836200094b565b91507f42726565642069732072657175697265640000000000000000000000000000006000830152602082019050919050565b6000620008626010836200094b565b91507f4e616d65206973207265717569726564000000000000000000000000000000006000830152602082019050919050565b620008a0816200095c565b82525050565b60006020820190508181036000830152620008c1816200078d565b9050919050565b60006020820190508181036000830152620008e381620007cf565b9050919050565b60006020820190508181036000830152620009058162000811565b9050919050565b60006020820190508181036000830152620009278162000853565b9050919050565b600060208201905062000945600083018462000895565b92915050565b600082825260208201905092915050565b6000819050919050565b6116aa80620009766000396000f3fe608060405234801561001057600080fd5b506004361061004c5760003560e01c8063382723561461005157806367b1dbc81461008757806375a25e6e146100a35780637c62e2a4146100bf575b600080fd5b61006b60048036036100669190810190610d69565b6100ef565b60405161007e979695949392919061134f565b60405180910390f35b6100a1600480360361009c9190810190610e4b565b610281565b005b6100bd60048036036100b89190810190610d92565b61042a565b005b6100d960048036036100d49190810190610d69565b61072f565b6040516100e6919061148c565b60405180910390f35b60006020528060005260406000206000915090508060000160009054906101000a900473ffffffffffffffffffffffffffffffffffffffff1690806001015490806002018054600181600116156101000203166002900480601f0160208091040260200160405190810160405280929190818152602001828054600181600116156101000203166002900480156101c75780601f1061019c576101008083540402835291602001916101c7565b820191906000526020600020905b8154815290600101906020018083116101aa57829003601f168201915b505050505090806003018054600181600116156101000203166002900480601f0160208091040260200160405190810160405280929190818152602001828054600181600116156101000203166002900480156102655780601f1061023a57610100808354040283529160200191610265565b820191906000526020600020905b81548152906001019060200180831161024857829003601f168201915b5050505050908060040154908060050154908060060154905087565b60008060008681526020019081526020016000206001015414156102da576040517f08c379a00000000000000000000000000000000000000000000000000000000081526004016102d1906113cc565b60405180910390fd5b60008251141561031f576040517f08c379a00000000000000000000000000000000000000000000000000000000081526004016103169061142c565b60405180910390fd5b60008085815260200190815260200160002060080160405180608001604052803373ffffffffffffffffffffffffffffffffffffffff168152602001858152602001848152602001838152509080600181540180825580915050906001820390600052602060002090600402016000909192909190915060008201518160000160006101000a81548173ffffffffffffffffffffffffffffffffffffffff021916908373ffffffffffffffffffffffffffffffffffffffff160217905550602082015181600101556040820151816002019080519060200190610403929190610b79565b506060820151816003019080519060200190610420929190610b79565b5050505050505050565b600086141561046e576040517f08c379a00000000000000000000000000000000000000000000000000000000081526004016104659061140c565b60405180910390fd5b600080600088815260200190815260200160002060010154146104c6576040517f08c379a00000000000000000000000000000000000000000000000000000000081526004016104bd906113ec565b60405180910390fd5b60008551141561050b576040517f08c379a00000000000000000000000000000000000000000000000000000000081526004016105029061146c565b60405180910390fd5b600084511415610550576040517f08c379a00000000000000000000000000000000000000000000000000000000081526004016105479061144c565b60405180910390fd5b3360008088815260200190815260200160002060000160006101000a81548173ffffffffffffffffffffffffffffffffffffffff021916908373ffffffffffffffffffffffffffffffffffffffff16021790555085600080888152602001908152602001600020600101819055508460008088815260200190815260200160002060020190805190602001906105e7929190610bf9565b50836000808881526020019081526020016000206003019080519060200190610611929190610bf9565b50826000808881526020019081526020016000206004018190555081600080888152602001908152602001600020600501819055508060008088815260200190815260200160002060060181905550600082146106a8576000808381526020019081526020016000206007018690806001815401808255809150509060018203906000526020600020016000909192909190915055505b600081146106f0576000808281526020019081526020016000206007018690806001815401808255809150509060018203906000526020600020016000909192909190915055505b7f7ceb44edee9af0b1ddf26d45c39285e1c454880d1c41931127f9c7627876ac278660405161071f91906114ae565b60405180910390a1505050505050565b610737610c79565b600080838152602001908152602001600020604051806101200160405290816000820160009054906101000a900473ffffffffffffffffffffffffffffffffffffffff1673ffffffffffffffffffffffffffffffffffffffff1673ffffffffffffffffffffffffffffffffffffffff16815260200160018201548152602001600282018054600181600116156101000203166002900480601f01602080910402602001604051908101604052809291908181526020018280546001816001161561010002031660029004801561084e5780601f106108235761010080835404028352916020019161084e565b820191906000526020600020905b81548152906001019060200180831161083157829003601f168201915b50505050508152602001600382018054600181600116156101000203166002900480601f0160208091040260200160405190810160405280929190818152602001828054600181600116156101000203166002900480156108f05780601f106108c5576101008083540402835291602001916108f0565b820191906000526020600020905b8154815290600101906020018083116108d357829003601f168201915b505050505081526020016004820154815260200160058201548152602001600682015481526020016007820180548060200260200160405190810160405280929190818152602001828054801561096657602002820191906000526020600020905b815481526020019060010190808311610952575b5050505050815260200160088201805480602002602001604051908101604052809291908181526020016000905b82821015610b6a57838290600052602060002090600402016040518060800160405290816000820160009054906101000a900473ffffffffffffffffffffffffffffffffffffffff1673ffffffffffffffffffffffffffffffffffffffff1673ffffffffffffffffffffffffffffffffffffffff16815260200160018201548152602001600282018054600181600116156101000203166002900480601f016020809104026020016040519081016040528092919081815260200182805460018160011615610100020316600290048015610ab05780601f10610a8557610100808354040283529160200191610ab0565b820191906000526020600020905b815481529060010190602001808311610a9357829003601f168201915b50505050508152602001600382018054600181600116156101000203166002900480601f016020809104026020016040519081016040528092919081815260200182805460018160011615610100020316600290048015610b525780601f10610b2757610100808354040283529160200191610b52565b820191906000526020600020905b815481529060010190602001808311610b3557829003601f168201915b50505050508152505081526020019060010190610994565b50505050815250509050919050565b828054600181600116156101000203166002900490600052602060002090601f016020900481019282601f10610bba57805160ff1916838001178555610be8565b82800160010185558215610be8579182015b82811115610be7578251825591602001919060010190610bcc565b5b509050610bf59190610cdb565b5090565b828054600181600116156101000203166002900490600052602060002090601f016020900481019282601f10610c3a57805160ff1916838001178555610c68565b82800160010185558215610c68579182015b82811115610c67578251825591602001919060010190610c4c565b5b509050610c759190610cdb565b5090565b604051806101200160405280600073ffffffffffffffffffffffffffffffffffffffff16815260200160008152602001606081526020016060815260200160008152602001600081526020016000815260200160608152602001606081525090565b610cfd91905b80821115610cf9576000816000905550600101610ce1565b5090565b90565b600082601f830112610d1157600080fd5b8135610d24610d1f826114f6565b6114c9565b91508082526020830160208301858383011115610d4057600080fd5b610d4b8382846115fd565b50505092915050565b600081359050610d6381611650565b92915050565b600060208284031215610d7b57600080fd5b6000610d8984828501610d54565b91505092915050565b60008060008060008060c08789031215610dab57600080fd5b6000610db989828a01610d54565b965050602087013567ffffffffffffffff811115610dd657600080fd5b610de289828a01610d00565b955050604087013567ffffffffffffffff811115610dff57600080fd5b610e0b89828a01610d00565b9450506060610e1c89828a01610d54565b9350506080610e2d89828a01610d54565b92505060a0610e3e89828a01610d54565b9150509295509295509295565b60008060008060808587031215610e6157600080fd5b6000610e6f87828801610d54565b9450506020610e8087828801610d54565b935050604085013567ffffffffffffffff811115610e9d57600080fd5b610ea987828801610d00565b925050606085013567ffffffffffffffff811115610ec657600080fd5b610ed287828801610d00565b91505092959194509250565b6000610eea83836112c7565b905092915050565b6000610efe8383611331565b60208301905092915050565b610f13816115c1565b82525050565b610f22816115c1565b82525050565b6000610f3382611542565b610f3d818561157d565b935083602082028501610f4f85611522565b8060005b85811015610f8b5784840389528151610f6c8582610ede565b9450610f7783611563565b925060208a01995050600181019050610f53565b50829750879550505050505092915050565b6000610fa88261154d565b610fb2818561158e565b9350610fbd83611532565b8060005b83811015610fee578151610fd58882610ef2565b9750610fe083611570565b925050600181019050610fc1565b5085935050505092915050565b600061100682611558565b611010818561159f565b935061102081856020860161160c565b6110298161163f565b840191505092915050565b600061103f82611558565b61104981856115b0565b935061105981856020860161160c565b6110628161163f565b840191505092915050565b600061107a6015836115b0565b91507f446f67206973206e6f74207265676973746572656400000000000000000000006000830152602082019050919050565b60006110ba6016836115b0565b91507f446f6720616c72656164792072656769737465726564000000000000000000006000830152602082019050919050565b60006110fa6020836115b0565b91507f4d6963726f63686970204e756d6265722063616e6e6f74206265207a65726f2e6000830152602082019050919050565b600061113a6011836115b0565b91507f5469746c652069732072657175697265640000000000000000000000000000006000830152602082019050919050565b600061117a6011836115b0565b91507f42726565642069732072657175697265640000000000000000000000000000006000830152602082019050919050565b60006111ba6010836115b0565b91507f4e616d65206973207265717569726564000000000000000000000000000000006000830152602082019050919050565b6000610120830160008301516112066000860182610f0a565b5060208301516112196020860182611331565b50604083015184820360408601526112318282610ffb565b9150506060830151848203606086015261124b8282610ffb565b91505060808301516112606080860182611331565b5060a083015161127360a0860182611331565b5060c083015161128660c0860182611331565b5060e083015184820360e086015261129e8282610f9d565b9150506101008301518482036101008601526112ba8282610f28565b9150508091505092915050565b60006080830160008301516112df6000860182610f0a565b5060208301516112f26020860182611331565b506040830151848203604086015261130a8282610ffb565b915050606083015184820360608601526113248282610ffb565b9150508091505092915050565b61133a816115f3565b82525050565b611349816115f3565b82525050565b600060e082019050611364600083018a610f19565b6113716020830189611340565b81810360408301526113838188611034565b905081810360608301526113978187611034565b90506113a66080830186611340565b6113b360a0830185611340565b6113c060c0830184611340565b98975050505050505050565b600060208201905081810360008301526113e58161106d565b9050919050565b60006020820190508181036000830152611405816110ad565b9050919050565b60006020820190508181036000830152611425816110ed565b9050919050565b600060208201905081810360008301526114458161112d565b9050919050565b600060208201905081810360008301526114658161116d565b9050919050565b60006020820190508181036000830152611485816111ad565b9050919050565b600060208201905081810360008301526114a681846111ed565b905092915050565b60006020820190506114c36000830184611340565b92915050565b6000604051905081810181811067ffffffffffffffff821117156114ec57600080fd5b8060405250919050565b600067ffffffffffffffff82111561150d57600080fd5b601f19601f8301169050602081019050919050565b6000819050602082019050919050565b6000819050602082019050919050565b600081519050919050565b600081519050919050565b600081519050919050565b6000602082019050919050565b6000602082019050919050565b600082825260208201905092915050565b600082825260208201905092915050565b600082825260208201905092915050565b600082825260208201905092915050565b60006115cc826115d3565b9050919050565b600073ffffffffffffffffffffffffffffffffffffffff82169050919050565b6000819050919050565b82818337600083830152505050565b60005b8381101561162a57808201518184015260208101905061160f565b83811115611639576000848401525b50505050565b6000601f19601f8301169050919050565b611659816115f3565b811461166457600080fd5b5056fea365627a7a7231582023501878574e4f1ef6e5a0998748c904d85aa0fe0b8e85bf1bb15009ffed8e256c6578706572696d656e74616cf564736f6c63430005100040",
  "source": "pragma solidity >=0.5.0 <0.7.0;\npragma experimental ABIEncoderV2;\n\n\ncontract DogAncestry {\n    struct Record {\n        address recorder; // the vet responsible for creating the record\n        uint256 date; // the date that this record applies from\n        string title; // a short description e.g. \"Vaccination\"\n        string details; // any extra details\n    }\n\n    struct Dog {\n        address registerer; //the vet responsible for registering this dog\n        uint256 microchipNumber; // this dog's microchip number\n        string name;\n        string breed; // the dog's primary breed\n        uint256 dob;\n        //bool isDobApproximated;\n        uint256 dam; // mother's microchip number\n        uint256 sire; // father's microchip number\n        uint256[] offspring; // offspring's microchip numbers\n        Record[] medicals; // list of relevant medical records, e.g. vaccinations\n    }\n\n    mapping(uint256 => Dog) public dogs;\n\n    event DogRegistered(uint256 dogId);\n    event NewRecord(uint256 dogId, uint256 recordNum);\n\n    // A special function only run during the creation of the contract\n    constructor() public {\n        registerDog(100, \"Jannet\", \"Poo\", 123456789, 0, 0);\n        registerDog(101, \"Steve\", \"Dle\", 123456789, 0, 0);\n        registerDog(102, \"Lindsay\", \"Labra\", 123456789, 0, 0);\n        registerDog(103, \"Jim\", \"Dor\", 123456789, 0, 0);\n        registerDog(104, \"Stevette\", \"Poodle\", 123456789, 100, 101);\n        registerDog(105, \"Jindsay\", \"Labrador\", 123456789, 102, 103);\n        registerDog(106, \"Jindette\", \"Labradoodle\", 123456789, 104, 105);\n    }\n\n    // Register a new dog on the Blockchain.\n    function registerDog(\n        uint256 microchipNumber,\n        string memory name,\n        string memory breed,\n        uint256 dob,\n        uint256 dam,\n        uint256 sire\n    ) public {\n        require(microchipNumber != 0, \"Microchip Number cannot be zero.\");\n        require(\n            dogs[microchipNumber].microchipNumber == 0,\n            \"Dog already registered\"\n        );\n        require(bytes(name).length != 0, \"Name is required\");\n        require(bytes(breed).length != 0, \"Breed is required\"); // we could possible make this a bit more rigorous\n\n        // could check if dam and sire are in the system\n        // however, that would imply that they would need to be added to the system first\n        // which is probably not desired behaviour.\n\n        // create our dog!\n        dogs[microchipNumber].registerer = msg.sender;\n        dogs[microchipNumber].microchipNumber = microchipNumber;\n        dogs[microchipNumber].name = name;\n        dogs[microchipNumber].breed = breed;\n        dogs[microchipNumber].dob = dob;\n        dogs[microchipNumber].dam = dam;\n        dogs[microchipNumber].sire = sire;\n\n        // let's also update the parents\n        if (dam != 0) {\n            dogs[dam].offspring.push(microchipNumber);\n        }\n        if (sire != 0) {\n            dogs[sire].offspring.push(microchipNumber);\n        }\n\n        emit DogRegistered(microchipNumber);\n    }\n\n    // Create a medical record for a dog.\n    function createRecord(\n        uint256 microchipNumber,\n        uint256 date,\n        string memory title,\n        string memory details\n    ) public {\n        // we need to add some kind of access control here to limit who can actually create records for the dog\n\n        require(\n            dogs[microchipNumber].microchipNumber != 0,\n            \"Dog is not registered\"\n        );\n\n        require(bytes(title).length != 0, \"Title is required\");\n\n        // create our record and get its index\n        dogs[microchipNumber].medicals.push(\n            Record({\n                recorder: msg.sender,\n                date: date,\n                title: title,\n                details: details\n            })\n        );\n\n        // emit NewRecord(microchipNumber, recordNumber);\n    }\n\n    ///////////////////////////////////////////////////////////////////////////\n    //// GETTERS\n    ///////////////////////////////////////////////////////////////////////////\n    function getDog(uint microchipNumber) public view returns(Dog memory) {\n        return dogs[microchipNumber];\n    }\n\n    // function getRecord(uint microchipNumber, uint recordNumber) public view returns(string memory) {\n    //     return dogs[microchipNumber].medicals[recordNumber].title;\n    // }\n}\n",
  "sourcePath": "/Users/leo/code/COMS4507/Application/contracts/DogAncestry.sol",
  "compiler": {
    "name": "solc",
    "version": "0.5.16+commit.9c3226ce.Emscripten.clang"
  },
  "schemaVersion": "3.1.0",
  "updatedAt": "2020-05-04T05:11:04.692Z",
  "networkType": "ethereum",
  "devdoc": {
    "methods": {}
  },
  "userdoc": {
    "methods": {
      "getDog(uint256)": {
        "notice": "//////////////////////////////////////////////////////////////////////// / GETTERS ////////////////////////////////////////////////////////////////////////"
      }
    }
  }
}