{
  "contractName": "DogAncestry",
  "abi": [
    {
      "inputs": [],
      "payable": false,
      "stateMutability": "nonpayable",
      "type": "constructor"
    },
    {
      "anonymous": false,
      "inputs": [
        {
          "indexed": false,
          "internalType": "uint256",
          "name": "dogId",
          "type": "uint256"
        }
      ],
      "name": "DogRegistered",
      "type": "event"
    },
    {
      "anonymous": false,
      "inputs": [
        {
          "indexed": false,
          "internalType": "uint256",
          "name": "dogId",
          "type": "uint256"
        },
        {
          "indexed": false,
          "internalType": "uint256",
          "name": "recordNum",
          "type": "uint256"
        }
      ],
      "name": "NewRecord",
      "type": "event"
    },
    {
      "constant": true,
      "inputs": [
        {
          "internalType": "uint256",
          "name": "",
          "type": "uint256"
        }
      ],
      "name": "dogs",
      "outputs": [
        {
          "internalType": "address",
          "name": "registerer",
          "type": "address"
        },
        {
          "internalType": "uint256",
          "name": "microchipNumber",
          "type": "uint256"
        },
        {
          "internalType": "string",
          "name": "name",
          "type": "string"
        },
        {
          "internalType": "string",
          "name": "breed",
          "type": "string"
        },
        {
          "internalType": "uint256",
          "name": "dob",
          "type": "uint256"
        },
        {
          "internalType": "uint256",
          "name": "dam",
          "type": "uint256"
        },
        {
          "internalType": "uint256",
          "name": "sire",
          "type": "uint256"
        }
      ],
      "payable": false,
      "stateMutability": "view",
      "type": "function"
    },
    {
      "constant": false,
      "inputs": [
        {
          "internalType": "uint256",
          "name": "microchipNumber",
          "type": "uint256"
        },
        {
          "internalType": "string",
          "name": "name",
          "type": "string"
        },
        {
          "internalType": "string",
          "name": "breed",
          "type": "string"
        },
        {
          "internalType": "uint256",
          "name": "dob",
          "type": "uint256"
        },
        {
          "internalType": "uint256",
          "name": "dam",
          "type": "uint256"
        },
        {
          "internalType": "uint256",
          "name": "sire",
          "type": "uint256"
        }
      ],
      "name": "registerDog",
      "outputs": [],
      "payable": false,
      "stateMutability": "nonpayable",
      "type": "function"
    },
    {
      "constant": false,
      "inputs": [
        {
          "internalType": "uint256",
          "name": "microchipNumber",
          "type": "uint256"
        },
        {
          "internalType": "uint256",
          "name": "date",
          "type": "uint256"
        },
        {
          "internalType": "string",
          "name": "title",
          "type": "string"
        },
        {
          "internalType": "string",
          "name": "details",
          "type": "string"
        }
      ],
      "name": "createRecord",
      "outputs": [],
      "payable": false,
      "stateMutability": "nonpayable",
      "type": "function"
    },
    {
      "constant": true,
      "inputs": [
        {
          "internalType": "uint256",
          "name": "microchipNumber",
          "type": "uint256"
        }
      ],
      "name": "getDog",
      "outputs": [
        {
          "components": [
            {
              "internalType": "address",
              "name": "registerer",
              "type": "address"
            },
            {
              "internalType": "uint256",
              "name": "microchipNumber",
              "type": "uint256"
            },
            {
              "internalType": "string",
              "name": "name",
              "type": "string"
            },
            {
              "internalType": "string",
              "name": "breed",
              "type": "string"
            },
            {
              "internalType": "uint256",
              "name": "dob",
              "type": "uint256"
            },
            {
              "internalType": "uint256",
              "name": "dam",
              "type": "uint256"
            },
            {
              "internalType": "uint256",
              "name": "sire",
              "type": "uint256"
            },
            {
              "internalType": "uint256[]",
              "name": "offspring",
              "type": "uint256[]"
            },
            {
              "components": [
                {
                  "internalType": "address",
                  "name": "recorder",
                  "type": "address"
                },
                {
                  "internalType": "uint256",
                  "name": "date",
                  "type": "uint256"
                },
                {
                  "internalType": "string",
                  "name": "title",
                  "type": "string"
                },
                {
                  "internalType": "string",
                  "name": "details",
                  "type": "string"
                }
              ],
              "internalType": "struct DogAncestry.Record[]",
              "name": "medicals",
              "type": "tuple[]"
            }
          ],
          "internalType": "struct DogAncestry.Dog",
          "name": "",
          "type": "tuple"
        }
      ],
      "payable": false,
      "stateMutability": "view",
      "type": "function"
    }
  ],
  "bytecode": "0x60806040523480156200001157600080fd5b506200009860646040518060400160405280600681526020017f4a616e6e657400000000000000000000000000000000000000000000000000008152506040518060400160405280600381526020017f506f6f000000000000000000000000000000000000000000000000000000000081525063075bcd15600080620006ed60201b60201c565b6200011e60656040518060400160405280600581526020017f53746576650000000000000000000000000000000000000000000000000000008152506040518060400160405280600381526020017f446c65000000000000000000000000000000000000000000000000000000000081525063075bcd15600080620006ed60201b60201c565b620001a460666040518060400160405280600781526020017f4c696e64736179000000000000000000000000000000000000000000000000008152506040518060400160405280600581526020017f4c6162726100000000000000000000000000000000000000000000000000000081525063075bcd15600080620006ed60201b60201c565b6200022a60676040518060400160405280600381526020017f4a696d00000000000000000000000000000000000000000000000000000000008152506040518060400160405280600381526020017f446f72000000000000000000000000000000000000000000000000000000000081525063075bcd15600080620006ed60201b60201c565b620002b160686040518060400160405280600881526020017f53746576657474650000000000000000000000000000000000000000000000008152506040518060400160405280600681526020017f506f6f646c65000000000000000000000000000000000000000000000000000081525063075bcd1560646065620006ed60201b60201c565b6200033860696040518060400160405280600781526020017f4a696e64736179000000000000000000000000000000000000000000000000008152506040518060400160405280600881526020017f4c61627261646f7200000000000000000000000000000000000000000000000081525063075bcd1560666067620006ed60201b60201c565b620003bf606a6040518060400160405280600881526020017f4a696e64657474650000000000000000000000000000000000000000000000008152506040518060400160405280600b81526020017f4c61627261646f6f646c6500000000000000000000000000000000000000000081525063075bcd1560686069620006ed60201b60201c565b6200044560c86040518060400160405280600181526020017f41000000000000000000000000000000000000000000000000000000000000008152506040518060400160405280600381526020017f506f6f000000000000000000000000000000000000000000000000000000000081525063075bcd15600080620006ed60201b60201c565b620004cc60c96040518060400160405280600181526020017f42000000000000000000000000000000000000000000000000000000000000008152506040518060400160405280600381526020017f446c65000000000000000000000000000000000000000000000000000000000081525063075bcd1560686069620006ed60201b60201c565b6200055260ca6040518060400160405280600181526020017f43000000000000000000000000000000000000000000000000000000000000008152506040518060400160405280600581526020017f4c6162726100000000000000000000000000000000000000000000000000000081525063075bcd15600080620006ed60201b60201c565b620005d960cb6040518060400160405280600181526020017f44000000000000000000000000000000000000000000000000000000000000008152506040518060400160405280600381526020017f446f72000000000000000000000000000000000000000000000000000000000081525063075bcd1560c860c9620006ed60201b60201c565b6200066060cc6040518060400160405280600181526020017f45000000000000000000000000000000000000000000000000000000000000008152506040518060400160405280600681526020017f506f6f646c65000000000000000000000000000000000000000000000000000081525063075bcd1560ca60c9620006ed60201b60201c565b620006e760cd6040518060400160405280600181526020017f46000000000000000000000000000000000000000000000000000000000000008152506040518060400160405280600881526020017f4c61627261646f7200000000000000000000000000000000000000000000000081525063075bcd1560cc60cb620006ed60201b60201c565b62000c8e565b600086141562000734576040517f08c379a00000000000000000000000000000000000000000000000000000000081526004016200072b9062000bf0565b60405180910390fd5b600080600088815260200190815260200160002060010154146200078f576040517f08c379a0000000000000000000000000000000000000000000000000000000008152600401620007869062000bce565b60405180910390fd5b600085511415620007d7576040517f08c379a0000000000000000000000000000000000000000000000000000000008152600401620007ce9062000c34565b60405180910390fd5b6000845114156200081f576040517f08c379a0000000000000000000000000000000000000000000000000000000008152600401620008169062000c12565b60405180910390fd5b3360008088815260200190815260200160002060000160006101000a81548173ffffffffffffffffffffffffffffffffffffffff021916908373ffffffffffffffffffffffffffffffffffffffff1602179055508560008088815260200190815260200160002060010181905550846000808881526020019081526020016000206002019080519060200190620008b892919062000a06565b50836000808881526020019081526020016000206003019080519060200190620008e492919062000a06565b50826000808881526020019081526020016000206004018190555081600080888152602001908152602001600020600501819055508060008088815260200190815260200160002060060181905550600082146200097c576000808381526020019081526020016000206007018690806001815401808255809150509060018203906000526020600020016000909192909190915055505b60008114620009c5576000808281526020019081526020016000206007018690806001815401808255809150509060018203906000526020600020016000909192909190915055505b7f7ceb44edee9af0b1ddf26d45c39285e1c454880d1c41931127f9c7627876ac2786604051620009f6919062000c56565b60405180910390a1505050505050565b828054600181600116156101000203166002900490600052602060002090601f016020900481019282601f1062000a4957805160ff191683800117855562000a7a565b8280016001018555821562000a7a579182015b8281111562000a7957825182559160200191906001019062000a5c565b5b50905062000a89919062000a8d565b5090565b62000ab291905b8082111562000aae57600081600090555060010162000a94565b5090565b90565b600062000ac460168362000c73565b91507f446f6720616c72656164792072656769737465726564000000000000000000006000830152602082019050919050565b600062000b0660208362000c73565b91507f4d6963726f63686970204e756d6265722063616e6e6f74206265207a65726f2e6000830152602082019050919050565b600062000b4860118362000c73565b91507f42726565642069732072657175697265640000000000000000000000000000006000830152602082019050919050565b600062000b8a60108362000c73565b91507f4e616d65206973207265717569726564000000000000000000000000000000006000830152602082019050919050565b62000bc88162000c84565b82525050565b6000602082019050818103600083015262000be98162000ab5565b9050919050565b6000602082019050818103600083015262000c0b8162000af7565b9050919050565b6000602082019050818103600083015262000c2d8162000b39565b9050919050565b6000602082019050818103600083015262000c4f8162000b7b565b9050919050565b600060208201905062000c6d600083018462000bbd565b92915050565b600082825260208201905092915050565b6000819050919050565b6116aa8062000c9e6000396000f3fe608060405234801561001057600080fd5b506004361061004c5760003560e01c8063382723561461005157806367b1dbc81461008757806375a25e6e146100a35780637c62e2a4146100bf575b600080fd5b61006b60048036036100669190810190610d69565b6100ef565b60405161007e979695949392919061134f565b60405180910390f35b6100a1600480360361009c9190810190610e4b565b610281565b005b6100bd60048036036100b89190810190610d92565b61042a565b005b6100d960048036036100d49190810190610d69565b61072f565b6040516100e6919061148c565b60405180910390f35b60006020528060005260406000206000915090508060000160009054906101000a900473ffffffffffffffffffffffffffffffffffffffff1690806001015490806002018054600181600116156101000203166002900480601f0160208091040260200160405190810160405280929190818152602001828054600181600116156101000203166002900480156101c75780601f1061019c576101008083540402835291602001916101c7565b820191906000526020600020905b8154815290600101906020018083116101aa57829003601f168201915b505050505090806003018054600181600116156101000203166002900480601f0160208091040260200160405190810160405280929190818152602001828054600181600116156101000203166002900480156102655780601f1061023a57610100808354040283529160200191610265565b820191906000526020600020905b81548152906001019060200180831161024857829003601f168201915b5050505050908060040154908060050154908060060154905087565b60008060008681526020019081526020016000206001015414156102da576040517f08c379a00000000000000000000000000000000000000000000000000000000081526004016102d1906113cc565b60405180910390fd5b60008251141561031f576040517f08c379a00000000000000000000000000000000000000000000000000000000081526004016103169061142c565b60405180910390fd5b60008085815260200190815260200160002060080160405180608001604052803373ffffffffffffffffffffffffffffffffffffffff168152602001858152602001848152602001838152509080600181540180825580915050906001820390600052602060002090600402016000909192909190915060008201518160000160006101000a81548173ffffffffffffffffffffffffffffffffffffffff021916908373ffffffffffffffffffffffffffffffffffffffff160217905550602082015181600101556040820151816002019080519060200190610403929190610b79565b506060820151816003019080519060200190610420929190610b79565b5050505050505050565b600086141561046e576040517f08c379a00000000000000000000000000000000000000000000000000000000081526004016104659061140c565b60405180910390fd5b600080600088815260200190815260200160002060010154146104c6576040517f08c379a00000000000000000000000000000000000000000000000000000000081526004016104bd906113ec565b60405180910390fd5b60008551141561050b576040517f08c379a00000000000000000000000000000000000000000000000000000000081526004016105029061146c565b60405180910390fd5b600084511415610550576040517f08c379a00000000000000000000000000000000000000000000000000000000081526004016105479061144c565b60405180910390fd5b3360008088815260200190815260200160002060000160006101000a81548173ffffffffffffffffffffffffffffffffffffffff021916908373ffffffffffffffffffffffffffffffffffffffff16021790555085600080888152602001908152602001600020600101819055508460008088815260200190815260200160002060020190805190602001906105e7929190610bf9565b50836000808881526020019081526020016000206003019080519060200190610611929190610bf9565b50826000808881526020019081526020016000206004018190555081600080888152602001908152602001600020600501819055508060008088815260200190815260200160002060060181905550600082146106a8576000808381526020019081526020016000206007018690806001815401808255809150509060018203906000526020600020016000909192909190915055505b600081146106f0576000808281526020019081526020016000206007018690806001815401808255809150509060018203906000526020600020016000909192909190915055505b7f7ceb44edee9af0b1ddf26d45c39285e1c454880d1c41931127f9c7627876ac278660405161071f91906114ae565b60405180910390a1505050505050565b610737610c79565b600080838152602001908152602001600020604051806101200160405290816000820160009054906101000a900473ffffffffffffffffffffffffffffffffffffffff1673ffffffffffffffffffffffffffffffffffffffff1673ffffffffffffffffffffffffffffffffffffffff16815260200160018201548152602001600282018054600181600116156101000203166002900480601f01602080910402602001604051908101604052809291908181526020018280546001816001161561010002031660029004801561084e5780601f106108235761010080835404028352916020019161084e565b820191906000526020600020905b81548152906001019060200180831161083157829003601f168201915b50505050508152602001600382018054600181600116156101000203166002900480601f0160208091040260200160405190810160405280929190818152602001828054600181600116156101000203166002900480156108f05780601f106108c5576101008083540402835291602001916108f0565b820191906000526020600020905b8154815290600101906020018083116108d357829003601f168201915b505050505081526020016004820154815260200160058201548152602001600682015481526020016007820180548060200260200160405190810160405280929190818152602001828054801561096657602002820191906000526020600020905b815481526020019060010190808311610952575b5050505050815260200160088201805480602002602001604051908101604052809291908181526020016000905b82821015610b6a57838290600052602060002090600402016040518060800160405290816000820160009054906101000a900473ffffffffffffffffffffffffffffffffffffffff1673ffffffffffffffffffffffffffffffffffffffff1673ffffffffffffffffffffffffffffffffffffffff16815260200160018201548152602001600282018054600181600116156101000203166002900480601f016020809104026020016040519081016040528092919081815260200182805460018160011615610100020316600290048015610ab05780601f10610a8557610100808354040283529160200191610ab0565b820191906000526020600020905b815481529060010190602001808311610a9357829003601f168201915b50505050508152602001600382018054600181600116156101000203166002900480601f016020809104026020016040519081016040528092919081815260200182805460018160011615610100020316600290048015610b525780601f10610b2757610100808354040283529160200191610b52565b820191906000526020600020905b815481529060010190602001808311610b3557829003601f168201915b50505050508152505081526020019060010190610994565b50505050815250509050919050565b828054600181600116156101000203166002900490600052602060002090601f016020900481019282601f10610bba57805160ff1916838001178555610be8565b82800160010185558215610be8579182015b82811115610be7578251825591602001919060010190610bcc565b5b509050610bf59190610cdb565b5090565b828054600181600116156101000203166002900490600052602060002090601f016020900481019282601f10610c3a57805160ff1916838001178555610c68565b82800160010185558215610c68579182015b82811115610c67578251825591602001919060010190610c4c565b5b509050610c759190610cdb565b5090565b604051806101200160405280600073ffffffffffffffffffffffffffffffffffffffff16815260200160008152602001606081526020016060815260200160008152602001600081526020016000815260200160608152602001606081525090565b610cfd91905b80821115610cf9576000816000905550600101610ce1565b5090565b90565b600082601f830112610d1157600080fd5b8135610d24610d1f826114f6565b6114c9565b91508082526020830160208301858383011115610d4057600080fd5b610d4b8382846115fd565b50505092915050565b600081359050610d6381611650565b92915050565b600060208284031215610d7b57600080fd5b6000610d8984828501610d54565b91505092915050565b60008060008060008060c08789031215610dab57600080fd5b6000610db989828a01610d54565b965050602087013567ffffffffffffffff811115610dd657600080fd5b610de289828a01610d00565b955050604087013567ffffffffffffffff811115610dff57600080fd5b610e0b89828a01610d00565b9450506060610e1c89828a01610d54565b9350506080610e2d89828a01610d54565b92505060a0610e3e89828a01610d54565b9150509295509295509295565b60008060008060808587031215610e6157600080fd5b6000610e6f87828801610d54565b9450506020610e8087828801610d54565b935050604085013567ffffffffffffffff811115610e9d57600080fd5b610ea987828801610d00565b925050606085013567ffffffffffffffff811115610ec657600080fd5b610ed287828801610d00565b91505092959194509250565b6000610eea83836112c7565b905092915050565b6000610efe8383611331565b60208301905092915050565b610f13816115c1565b82525050565b610f22816115c1565b82525050565b6000610f3382611542565b610f3d818561157d565b935083602082028501610f4f85611522565b8060005b85811015610f8b5784840389528151610f6c8582610ede565b9450610f7783611563565b925060208a01995050600181019050610f53565b50829750879550505050505092915050565b6000610fa88261154d565b610fb2818561158e565b9350610fbd83611532565b8060005b83811015610fee578151610fd58882610ef2565b9750610fe083611570565b925050600181019050610fc1565b5085935050505092915050565b600061100682611558565b611010818561159f565b935061102081856020860161160c565b6110298161163f565b840191505092915050565b600061103f82611558565b61104981856115b0565b935061105981856020860161160c565b6110628161163f565b840191505092915050565b600061107a6015836115b0565b91507f446f67206973206e6f74207265676973746572656400000000000000000000006000830152602082019050919050565b60006110ba6016836115b0565b91507f446f6720616c72656164792072656769737465726564000000000000000000006000830152602082019050919050565b60006110fa6020836115b0565b91507f4d6963726f63686970204e756d6265722063616e6e6f74206265207a65726f2e6000830152602082019050919050565b600061113a6011836115b0565b91507f5469746c652069732072657175697265640000000000000000000000000000006000830152602082019050919050565b600061117a6011836115b0565b91507f42726565642069732072657175697265640000000000000000000000000000006000830152602082019050919050565b60006111ba6010836115b0565b91507f4e616d65206973207265717569726564000000000000000000000000000000006000830152602082019050919050565b6000610120830160008301516112066000860182610f0a565b5060208301516112196020860182611331565b50604083015184820360408601526112318282610ffb565b9150506060830151848203606086015261124b8282610ffb565b91505060808301516112606080860182611331565b5060a083015161127360a0860182611331565b5060c083015161128660c0860182611331565b5060e083015184820360e086015261129e8282610f9d565b9150506101008301518482036101008601526112ba8282610f28565b9150508091505092915050565b60006080830160008301516112df6000860182610f0a565b5060208301516112f26020860182611331565b506040830151848203604086015261130a8282610ffb565b915050606083015184820360608601526113248282610ffb565b9150508091505092915050565b61133a816115f3565b82525050565b611349816115f3565b82525050565b600060e082019050611364600083018a610f19565b6113716020830189611340565b81810360408301526113838188611034565b905081810360608301526113978187611034565b90506113a66080830186611340565b6113b360a0830185611340565b6113c060c0830184611340565b98975050505050505050565b600060208201905081810360008301526113e58161106d565b9050919050565b60006020820190508181036000830152611405816110ad565b9050919050565b60006020820190508181036000830152611425816110ed565b9050919050565b600060208201905081810360008301526114458161112d565b9050919050565b600060208201905081810360008301526114658161116d565b9050919050565b60006020820190508181036000830152611485816111ad565b9050919050565b600060208201905081810360008301526114a681846111ed565b905092915050565b60006020820190506114c36000830184611340565b92915050565b6000604051905081810181811067ffffffffffffffff821117156114ec57600080fd5b8060405250919050565b600067ffffffffffffffff82111561150d57600080fd5b601f19601f8301169050602081019050919050565b6000819050602082019050919050565b6000819050602082019050919050565b600081519050919050565b600081519050919050565b600081519050919050565b6000602082019050919050565b6000602082019050919050565b600082825260208201905092915050565b600082825260208201905092915050565b600082825260208201905092915050565b600082825260208201905092915050565b60006115cc826115d3565b9050919050565b600073ffffffffffffffffffffffffffffffffffffffff82169050919050565b6000819050919050565b82818337600083830152505050565b60005b8381101561162a57808201518184015260208101905061160f565b83811115611639576000848401525b50505050565b6000601f19601f8301169050919050565b611659816115f3565b811461166457600080fd5b5056fea365627a7a72315820d60ed875640a053953738cabcd8051b32170b04bfcedf6289f6f9045f13d04d76c6578706572696d656e74616cf564736f6c63430005100040",
  "source": "pragma solidity >=0.5.0 <0.7.0;\r\npragma experimental ABIEncoderV2;\r\n\r\n\r\ncontract DogAncestry {\r\n    struct Record {\r\n        address recorder; // the vet responsible for creating the record\r\n        uint256 date; // the date that this record applies from\r\n        string title; // a short description e.g. \"Vaccination\"\r\n        string details; // any extra details\r\n    }\r\n\r\n    struct Dog {\r\n        address registerer; //the vet responsible for registering this dog\r\n        uint256 microchipNumber; // this dog's microchip number\r\n        string name;\r\n        string breed; // the dog's primary breed\r\n        uint256 dob;\r\n        //bool isDobApproximated;\r\n        uint256 dam; // mother's microchip number\r\n        uint256 sire; // father's microchip number\r\n        uint256[] offspring; // offspring's microchip numbers\r\n        Record[] medicals; // list of relevant medical records, e.g. vaccinations\r\n    }\r\n\r\n    mapping(uint256 => Dog) public dogs;\r\n\r\n    event DogRegistered(uint256 dogId);\r\n    event NewRecord(uint256 dogId, uint256 recordNum);\r\n\r\n    // A special function only run during the creation of the contract\r\n    constructor() public {\r\n        //[OUTBRED]\r\n        registerDog(100, \"Jannet\", \"Poo\", 123456789, 0, 0);\r\n        registerDog(101, \"Steve\", \"Dle\", 123456789, 0, 0);\r\n        registerDog(102, \"Lindsay\", \"Labra\", 123456789, 0, 0);\r\n        registerDog(103, \"Jim\", \"Dor\", 123456789, 0, 0);\r\n        registerDog(104, \"Stevette\", \"Poodle\", 123456789, 100, 101);\r\n        registerDog(105, \"Jindsay\", \"Labrador\", 123456789, 102, 103);\r\n        registerDog(106, \"Jindette\", \"Labradoodle\", 123456789, 104, 105);\r\n\r\n        //[FULL SIBLING INBRED]\r\n        registerDog(200, \"A\", \"Poo\", 123456789, 0, 0);\r\n        registerDog(201, \"B\", \"Dle\", 123456789, 104, 105);\r\n        registerDog(202, \"C\", \"Labra\", 123456789, 0, 0);\r\n\r\n        registerDog(203, \"D\", \"Dor\", 123456789, 200, 201);\r\n        registerDog(204, \"E\", \"Poodle\", 123456789, 202, 201);\r\n\r\n        registerDog(205, \"F\", \"Labrador\", 123456789, 204, 203);\r\n\r\n    }\r\n\r\n    // Register a new dog on the Blockchain.\r\n    function registerDog(\r\n        uint256 microchipNumber,\r\n        string memory name,\r\n        string memory breed,\r\n        uint256 dob,\r\n        uint256 dam,\r\n        uint256 sire\r\n    ) public {\r\n        require(microchipNumber != 0, \"Microchip Number cannot be zero.\");\r\n        require(\r\n            dogs[microchipNumber].microchipNumber == 0,\r\n            \"Dog already registered\"\r\n        );\r\n        require(bytes(name).length != 0, \"Name is required\");\r\n        require(bytes(breed).length != 0, \"Breed is required\"); // we could possible make this a bit more rigorous\r\n\r\n        // could check if dam and sire are in the system\r\n        // however, that would imply that they would need to be added to the system first\r\n        // which is probably not desired behaviour.\r\n\r\n        // create our dog!\r\n        dogs[microchipNumber].registerer = msg.sender;\r\n        dogs[microchipNumber].microchipNumber = microchipNumber;\r\n        dogs[microchipNumber].name = name;\r\n        dogs[microchipNumber].breed = breed;\r\n        dogs[microchipNumber].dob = dob;\r\n        dogs[microchipNumber].dam = dam;\r\n        dogs[microchipNumber].sire = sire;\r\n\r\n        // let's also update the parents\r\n        if (dam != 0) {\r\n            dogs[dam].offspring.push(microchipNumber);\r\n        }\r\n        if (sire != 0) {\r\n            dogs[sire].offspring.push(microchipNumber);\r\n        }\r\n\r\n        emit DogRegistered(microchipNumber);\r\n    }\r\n\r\n    // Create a medical record for a dog.\r\n    function createRecord(\r\n        uint256 microchipNumber,\r\n        uint256 date,\r\n        string memory title,\r\n        string memory details\r\n    ) public {\r\n        // we need to add some kind of access control here to limit who can actually create records for the dog\r\n\r\n        require(\r\n            dogs[microchipNumber].microchipNumber != 0,\r\n            \"Dog is not registered\"\r\n        );\r\n\r\n        require(bytes(title).length != 0, \"Title is required\");\r\n\r\n        // create our record and get its index\r\n        dogs[microchipNumber].medicals.push(\r\n            Record({\r\n                recorder: msg.sender,\r\n                date: date,\r\n                title: title,\r\n                details: details\r\n            })\r\n        );\r\n\r\n        // emit NewRecord(microchipNumber, recordNumber);\r\n    }\r\n\r\n    ///////////////////////////////////////////////////////////////////////////\r\n    //// GETTERS\r\n    ///////////////////////////////////////////////////////////////////////////\r\n    function getDog(uint microchipNumber) public view returns(Dog memory) {\r\n        return dogs[microchipNumber];\r\n    }\r\n\r\n    // function getRecord(uint microchipNumber, uint recordNumber) public view returns(string memory) {\r\n    //     return dogs[microchipNumber].medicals[recordNumber].title;\r\n    // }\r\n}\r\n",
  "sourcePath": "F:\\Program Files\\Dropbox\\Dropbox\\Academics\\2020\\Semester One\\COMS4507\\Repository\\COMS4507\\Application\\contracts\\DogAncestry.sol",
  "compiler": {
    "name": "solc",
    "version": "0.5.16+commit.9c3226ce.Emscripten.clang"
  },
  "schemaVersion": "3.1.0",
  "updatedAt": "2020-05-13T04:01:43.786Z",
  "networkType": "ethereum",
  "devdoc": {
    "methods": {}
  },
  "userdoc": {
    "methods": {
      "getDog(uint256)": {
        "notice": "//////////////////////////////////////////////////////////////////////// / GETTERS ////////////////////////////////////////////////////////////////////////"
      }
    }
  }
}